:020000040800F2
:1000000038B6002061020008E93600088D3100088A
:100010005D3500089D100008A53E000800000000A6
:10002000000000000000000000000000A101000826
:10003000A110000800000000FD0100082938000898
:100040007B0200087B0200087B0200087B0200089C
:100050007B0200087B0200087B0200087B0200088C
:100060007B0200087B0200087B0200087B0200087C
:100070007B0200087B0200087B0200087B0200086C
:100080007B0200087B0200087B0200087B0200085C
:100090007B0200087B0200087B0200087B0200084C
:1000A0007B0200087B0200087B0200087B0200083C
:1000B0007B020008E13800087B0200087B02000890
:1000C0007B0200087B0200087B0200087B0200081C
:1000D0007B020008993E00087B0200087B020008B2
:1000E0007B0200087B0200087B0200087B020008FC
:1000F0007B0200087B0200087B0200087B020008EC
:100100007B0200087B0200087B0200087B020008DB
:100110007B0200087B0200087B0200087B020008CB
:100120007B0200087B0200087B0200087B020008BB
:100130007B020008F51000087B0200087B02000823
:100140007B0200087B0200087B0200087B0200089B
:100150007B0200087B0200087B0200087B0200088B
:100160007B0200087B0200087B0200087B0200087B
:100170007B0200087B0200087B02000800000000F0
:100180007B0200087B020008DFF810D000F05EFD63
:1001900000480047BD8C0008AFF3008038B600204F
:1001A0002C4B19680868B0E8F04F80F30988BFF35A
:1001B0006F8F4FF0000080F311887047000000003F
:1001C00008480068006880F308884FF0000080F35A
:1001D000148862B661B6BFF34F8FBFF36F8F00DF35
:1001E00000BF00BF08ED00E0DFF80C00016841F43B
:1001F00070010160704700BF88ED00E0EFF30980F7
:10020000BFF36F8F134B1A681EF0100F08BF20ED5D
:10021000108A20E9F04F106009B44FF0500080F3CD
:100220001188BFF34F8FBFF36F8F15F083FF4FF02F
:10023000000080F3118809BC19680868B0E8F04F25
:100240001EF0100F08BFB0EC108A80F30988BFF3CE
:100250006F8F704784000020EFF305807047000027
:100260000648804706480047FEE7FEE7FEE7FEE750
:10027000FEE7FEE7FEE7FEE7FEE7FEE7D13800080F
:10028000890100082DE9F05F0546002092469B4653
:1002900088460646814640241BE02846414647469C
:1002A000224600F0DDFA53465A46C01A914110D357
:1002B00011461846224600F0C4FA2D1A67EB0108D1
:1002C0004F4622460120002100F0BBFA17EB00093F
:1002D0004E41201EA4F10104DFDC484631462A4687
:1002E0004346BDE8F09F0000004870474475010890
:1002F00010B50446FFF7F8FF0068005D00F001004C
:1003000010BDA0F14101192900D82030704700002C
:100310000649074A0868504343F23902104408600E
:10032000400870470149086070470000C80100207C
:100330006D4EC64110B5431A934209D283188818EE
:1003400003E010F8011D03F8011D521EF9D210BD83
:1003500040EA01039B0703D009E008C9121F08C047
:10036000042AFAD203E011F8013B00F8013B521EC7
:10037000F9D210BDD2B201E000F8012B491EFBD228
:1003800070470022F6E710B513460A4604461946A0
:10039000FFF7F0FF204610BD30B505462A460B4654
:1003A00012F8010B13F8014B08B1A042F8D01CB1B0
:1003B000002802D06D1CF1E7284630BD421C10F821
:1003C000011B0029FBD1801A704710B5002200E004
:1003D000521C835C8C5CA34201D1002BF8D1D8B2B3
:1003E000E1B2401A10BD30B504460020034600E0DB
:1003F0005B1C934203D2E05CCD5C401BF8D030BD67
:100400000FB400B58DB010A909900B9000914FF07A
:10041000FF300A9000200C90054806900548079090
:100420006A4609A80F9900F03FFA0DB05DF814FB79
:10043000C5080008E30800082DE9FF5F1D464FF0DE
:10044000FF3BD5E9014691465F464FF00008A96998
:100450007F1C01988847296A824688470028F6D180
:10046000BAF1FF3F0CD024F4C064002E19DD600601
:1004700014D5BAF12B0F09D0BAF12D0F0ED103E02C
:10048000584604B0BDE8F09F44F48064A9697F1C1D
:1004900001988847761E8246002E02DDBAF1300FA1
:1004A00003D0B9F1000F26D032E0A969761E44F4DA
:1004B00000747F1C019888478246002E05DDBAF142
:1004C000780F06D0BAF1580F03D0B9F1000F10D051
:1004D0001EE0B9F1000F02D0B9F1100F18D1A969CF
:1004E000761E24F400747F1C0198884782461020F1
:1004F00002E0082000E00A20814609E008FB090824
:10050000A969761E44F400747F1C019888478246CE
:10051000002E05DD4946504600F0B2F90028EDDA1C
:10052000E96901988847A00502D46FF00100A8E7A7
:10053000E00725D1600613D5600502D5C8F100009B
:1005400000E0404629680A1D2A600968220501D595
:10055000087015E0220701D5088011E008600FE05F
:100560002868011D29600068210502D580F80080F7
:1005700006E0210702D5A0F8008001E0C0F8008065
:1005800038467EE770B5064603F0C8FC04680546A9
:100590000A220021304600F0B5F92C6070BD2DE92B
:1005A000FE4F81EA030404F0004421F0004100946E
:1005B0004FF0000B23F0004350EA01045ED052EAF2
:1005C00003045BD0C3F30A54C1F30A552C44A4F2CC
:1005D000F3340194A0FB0254C1F3130141F48011E0
:1005E000C3F3130343F4801301FB024400FB034EE7
:1005F000840A970A44EA815447EA8357A4FB0768B0
:1006000002958D0A05FB07854FEA932C04FB0C54D9
:100610002705029D4FEA065847EA1637B5EB08054D
:100620006EEB070C870E920E47EA811742EA83129F
:10063000A7FB0201B6EB0B0164EB00042B0D43EAB0
:100640000C335E1844EB1C50DA465146E7FB0201BE
:10065000C5F313044FEA0B3343EA14534FEA043251
:10066000019C43EA0603A4F10C040294009CCDE92A
:1006700000B400F0C5F903B0BDE8F08F00200146DA
:10068000F9E72DE9F04D81EA030404F0004B21F075
:10069000004514464FF0000A23F0004150EA0502DD
:1006A00020D054EA01021DD0C5F30A570246C5F313
:1006B0001303C1F31300C1F30A5640F4801543F449
:1006C0008013A7EB0608101BD64608F2FD3873EB23
:1006D000050002D308F1010801E092185B41B8F16E
:1006E000000F03DA00200146BDE8F08D00204FF432
:1006F0008011064684460EE0171B73EB050705D3F1
:10070000121B63EB050306434CEA010C49084FEA50
:10071000300092185B4150EA0107EDD152EA030024
:1007200012D082EA040083EA0501084305D0101BB9
:10073000AB4106D20122002306E000224FF0004325
:1007400002E06FF0010253101AEB06004CEB085167
:1007500010EB0A0041EB0B01BDE8F04D00F041B990
:100760000EB540F2334102910021CDE900110A4655
:100770000B4600F045F903B000BD70B5C1F30A5255
:1007800001F000450024C1F3130140F2FF3341F4AE
:1007900080119A4201DA002070BD40F233439A4240
:1007A000A2F2334203DC524200F05AF800E09040DB
:1007B0002C43F1D0404270BD00F0004230F00040C8
:1007C0000AD0C10D01F56071C0F3160042EA015173
:1007D000C20840071143704700200146704701F0EE
:1007E000004330B421F0004150EA010206D00A0D66
:1007F000A2F56072C1F31301002A02DC30BC0020B4
:100800007047440F44EAC104C100E01830BC00EB5B
:10081000C25000F0AFB830B50B4601460020202290
:10082000012409E021FA02F59D4205D303FA02F5FD
:10083000491B04FA02F52844151EA2F10102F1DC5D
:1008400030BD202A04DB203A00FA02F10020704774
:100850009140C2F1200320FA03F3194390407047FE
:10086000202A04DB203A21FA02F00021704721FA05
:1008700002F3D040C2F1200291400843194670476C
:100880003A2800D2303820F02002412A01D3A2F1C8
:100890003700884201D34FF0FF307047026811449F
:1008A0001378016018467047D160044951610449CA
:1008B000116200211161114600F0ECB99D08000899
:1008C000F1020008426842B1016811F8013B23B10E
:1008D000521EC0E90012184670470121C160881EEF
:1008E000704742685AB1C368016843B983688B4254
:1008F00005D0491E521CC0E90012002070474FF07D
:10090000FF3070472DE9F04791460F468046044678
:10091000002614F8015B2DB1FFF7E6FC0068405D8E
:10092000C007F6D12B2D02D02D2D18D0641E4A46BB
:100930003946204600F046FB27B13968A14201D173
:10094000C7F8008071054FF002040BD54042002823
:1009500003DD03F0E3FA0460A007BDE8F08746F486
:100960008066E4E70028F8DA03F0D8FA04606FF054
:100970000040F2E70029A8BF7047401C490008BFAB
:1009800020F00100704710B4B0FA80FC00FA0CF0BF
:1009900050EA010404BF10BC704749B1CCF12004F7
:1009A00021FA04F411FA0CF118BF01212143084384
:1009B000A3EB0C01CB1D4FEA00614FEA102042BFB0
:1009C000002010BC704700EBC35010440029A4BFA6
:1009D00010BC7047401C490008BF20F0010010BC4B
:1009E000704710B5141E73F1000408DA401C41F181
:1009F000000192185B411A4301D120F0010010BDA3
:100A00002DE9F04D92469B4611B1B1FA81F202E018
:100A1000B0FA80F220329046FFF713FF04460F46EB
:100A200040EA0A0041EA0B0153465A46084313D0F4
:100A3000114653EA010019D0C8F140025046FFF7B1
:100A40000FFF05460E46504659464246FFF7F9FE4F
:100A5000084305D0012004E020463946BDE8F08D6A
:100A60000020054346EAE0762C4337430A986305A5
:100A7000E40AA0EB08000022FD0A44EA47540A30C9
:100A800002D500200146E9E7010510196941DDE9B9
:100A9000084500196941BDE8F04DA2E72DE9FE4F78
:100AA000804681EA0300C00F0C46009021F000410F
:100AB00023F00045B8EB0200A94105D2404621468B
:100AC00090461C460B46024623F00040104347D098
:100AD000270DC7F30A00C3F30A510290401A019090
:100AE00040286BDAC3F3130040F4801B0098924651
:100AF00020B10023D2EB030A63EB0B0B019859469C
:100B0000C0F140025046FFF79CFE06460D46504697
:100B10005946019A00F0ACF810EB0800614100243E
:100B200087EA115284EAE7731A4340D0009A62B30D
:100B3000019A012A4FEA075215DC001B61EB020102
:100B40004FF0004202EA0752CDE90042001C41F595
:100B5000801132462B46FFF753FF03B0BDE8F08FFC
:100B600040462146F9E7001B61EB0201001C41F5FC
:100B7000801300185B412018A2F5001747EB030112
:100B800040EAD570B6196D4111E06D084FEA36069E
:100B900045EAC0754FEA0752001B61EB0201001CD9
:100BA00041F5801149084FEA3000001951413246A1
:100BB0002B4603B0BDE8F04FFFF713BF00980122AA
:100BC00040000023D0EB020263EBE0730098214663
:100BD0004FEAE074B8EB000061EB0401E9E783F051
:100BE00000435BE781F0004158E7C1F30A52C1F3CB
:100BF000130140F2FF3341F480119A4202DA0020DF
:100C00000146704740F233439A42A2F2334202DC7B
:100C10005242FFF725BEFFF714BE000030B5041E98
:100C200071F1000404DB4FF00044404264EB010129
:100C3000141E73F1000405DB1C464FF000435242C2
:100C400063EB0403994208BF904230BD064C074D48
:100C500006E0E06840F0010394E80700984710348C
:100C6000AC42F6D3FFF794FAA8770108C8770108D9
:100C7000202A06DBCB17203A41FA02F043EAE07360
:100C800006E041FA02F3D040C2F12002914008434D
:100C9000194670472DE9F34F8BB04FF0000801F172
:100CA0000C000C464FF0010B46460DF1080A01906E
:100CB0006269012101989047051E2DD0252D2CD069
:100CC000216A8847C0B16269012101989047216A71
:100CD00088470028F7D1411E62690198904700E0DB
:100CE000761CA1690B988847216A88470028F7D1AC
:100CF000E1690B988847DBE7A1690B9888470746AD
:100D0000A84201D1761CD3E7E1690B9888477F1C84
:100D100002D1B8F1000F6FD047E1002762693D466C
:100D20003946019890472A2804D162690121019827
:100D300090470125DFF88892626901210198904768
:100D4000A0F130010A290AD24F45E5DC07EB870103
:100D500000EB4107303FDFD445F01005ECE7E90632
:100D600001D46FF000476C280AD04C2814D06828B2
:100D700015D06A280DD074281CD07A281AD01DE00E
:100D800062690121019890476C2802D045F0040562
:100D900014E045F002050DE045F020050AE0626927
:100DA000012101989047682802D045F0080505E028
:100DB00045F400656269012101989047C4E9015733
:100DC00065283DD019DC58287AD00CDC452837D06E
:100DD00004DC252826D0412831D131E046282FD007
:100DE00047282CD12CE05B2877D0612828D06328B5
:100DF0007CD0642823D15AE0D1E06F2848D008DCA9
:100E000066281DD067281BD0692821D06E2816D1EE
:100E100027E0702845D0732868D0752847D07828F7
:100E20000DD14DE0A1690B988847054625283FF470
:100E300069AFE1690B9888476D1C3FF46AAFB4E075
:100E400023466A466FF001000B99AFF300809FE0E4
:100E500045F040006060A80723464FF0000236D4FA
:100E60003EE0E8077FF447AF2068011D216000687D
:100E7000290501D506701BE7290701D5068017E76C
:100E8000A90703D5F117C0E9006111E706600FE774
:100E900045F040006060A80723464FF0080216D4D2
:100EA0001EE040F60E0125EA0100606016E045F004
:100EB00040006060A80723464FF00A0207D40FE005
:100EC00045F040006060A80708D5234610226FF067
:100ED00001000B99AFF300805AE007E0234610228F
:100EE0006FF001000B99FFF7A7FA51E04FF00009EE
:100EF0004F464B46632802D05B2807D041E020795B
:100F0000C00601D40120A06001273AE062690121F6
:100F1000019890475E2805D14FF001096269494662
:100F200001989047216939B900210A46534643F890
:100F30002120491C0829FADBB0B3216969B9C1171E
:100F400000EBD16253110AEB830122F01F02821AD7
:100F500001200B68904003430B60626901210198F6
:100F600090475D28E8D1B9F1000F09D00020514623
:100F700051F82020D24341F82020401C0828F7DBFC
:100F800002AB224600976FF001000B99AFF300808F
:100F900000280CDA401C08D1BBF1000F05D04FF03F
:100FA000FF300DB0BDE8F08FFFE74046F9E7E907F5
:100FB00001D108F1010806444FF0000B78E600006B
:100FC000CCCCCC0C2DE9F05F82460078002715468A
:100FD0008B460AF10104B946302801D09DB113E0D7
:100FE00014F8010B0127782803D0582801D045B107
:100FF0000AE00DB1102D07D10027102514F8010BC0
:1010000002E0082500E00A250026B0460EE005FBB8
:10101000080005FB06F1012701EB10461FFA80F8D6
:10102000B6F5803F00D3B94614F8010B2946FFF707
:1010300027FC0028EBDABBF1000F05D00FB1641ECE
:1010400000E05446CBF80040B9F1000F06D002F0A2
:1010500065FF02210160C81EBDE8F09F48EA064016
:10106000FAE730B58C1810F8012B12F00F0301D1FC
:1010700010F8013B120906D110F8012B03E010F81B
:10108000015B01F8015B5B1EF9D101E001F8013B56
:10109000521EFBD1A142E6D3002030BDFEE77047CF
:1010A00070470000064908B509684FF4FA52B1FBD1
:1010B000F2F14143009100BF491E0091FBD208BDEF
:1010C0008000002038B50446006800F58050816932
:1010D00041F480118161206800F5805080690090A2
:1010E0000120FFF7DFFF2068009900F58050816143
:1010F00038BD0000014800F05CBA0000B4350020A3
:101100002DE9F041044621B14FF40060E060C000D9
:10111000A060E0690025002861D02A4623684026A7
:1011200019683C480140D4E902073843104340F4B1
:1011300000700843186020680768012000F0D4F8A8
:10114000206807602068466020684668012000F03B
:10115000CBF820684660206885602068C5602168FB
:1011600088694FF64172104040F080008861206825
:101170008669012000F0B8F8206886612068C561A2
:101180002068C569012000F0AFF82068C5612168BA
:1011900001F580518869204A1040204A02438A6143
:1011A000206800F580508569012000F09DF82068D6
:1011B00000F5805085612068194900F58050016074
:1011C000206800F580500568012000F08DF8206847
:1011D00000F580500560A069012803D009E04FF4B4
:1011E00080629BE7206800F58050C1690D4A114379
:1011F000C16160690C4A818811640178C37841EA51
:101200000361837840781B0443EA00200143516462
:10121000BDE8F0810F8120FF233FDEF804002002AB
:101220008020C102400001000080024072B6FEE74B
:101230002DE9F0410446876D00F0EEFD064694F876
:1012400035000025022806D08020606584F83450DF
:101250000120BDE8F0812068016821F016010160DD
:101260002068416921F080014161206C08B9A06CBF
:1012700020B12068016821F0080101602068016840
:1012800021F0010101600CE000F0C6FD801B052883
:1012900007D920206065032084F8350084F8345095
:1012A000D7E720680068C007EED194F85C103F20B3
:1012B0008840B860012084F8350084F8345000205C
:1012C000C7E790F83510022903D08021416501203D
:1012D0007047052180F835100068016821F0010190
:1012E000016000207047000070B5044600F094FDD6
:1012F0000546601C02D004480078044400F08CFDD0
:10130000401BA042FAD370BD740000202DE9F041CB
:10131000054690F845000C46012875D0012685F851
:101320004560022085F84400002C70D02A681168BE
:1013300041480140D4E900031843D4E902373B4354
:101340001843AB6818432369184363691843EB6873
:101350001843A3691843E3691843236A1843636A6F
:101360001843A36A184308431060286807680120DF
:10137000FFF7BAFF28680760D4E90B010843D4E9F6
:101380000D1211430843E16B0843216C0843616C63
:101390000843A16C08432968486028684768012011
:1013A000FFF7A2FF286847602968E06C8860296819
:1013B000206DC8602A6891694FF641700140D4E9F8
:1013C00016031843B4F85470236E43EA07431843D6
:1013D000636E1843A36E18430843906128688769B9
:1013E0000120FFF781FF28688761D4E91B010843CA
:1013F0002968C8612868C4690120FFF775FF28685B
:10140000C46114E000E002E00220BDE8F081296838
:10141000086820F49042D5E902031843104308609D
:10142000286804680120FFF75FFF2868046005F85A
:10143000446F00206870E8E70F8120FF2DE9F0433A
:1014400090F845400025012C0DD04FF0010C80F89C
:1014500045C0022480F8444044F2F4574FF000495C
:101460005E1E816217E00220BDE8F08301EB4514A7
:10147000C4F80090C5EBC51808EB480802EB8808D3
:10148000C4E90178B54204D204F12008C4F80C8004
:1014900000E0E1606D1C9D42E8D3026802F58052D5
:1014A000D16080F844C0002180F845100846DBE791
:1014B0002DE9F043914690F845200024012A0AD0F6
:1014C000012680F84560022280F844204FF4801CF9
:1014D0005D1EC1621BE00220BDE8F08301EB4412F7
:1014E000C2F800C0C4EBC41707EB470809EB880734
:1014F0009760C7691FB9176847F440071760AC4287
:1015000003D202F12007D76000E0D160641C9C4246
:10151000E4D3026802F58052116180F84460002132
:1015200080F845100846D7E7704730B590F8451069
:101530000023012908D0012280F84520022180F8EB
:1015400044100024816A1AE0022030BD0D685B1C43
:10155000C5F30125022D0AD00D6815F4407F09D08E
:101560004163836B5B1C8363012B12D012E08263A7
:10157000016302E0856B6D1C8563C96881620D683B
:10158000002D01DB042BE1D300F8442F447001202F
:1015900030BD01630B68C3F30D431B1FC363036BB3
:1015A0009B680364C96840F8281F027744770020CD
:1015B00030BD70B50446006800F5805041694FF0B9
:1015C000000549064FF0010608D5204600F0DAF97B
:1015D0002068402100F58050416109E04069C00762
:1015E0000AD0204600F0DCFA206800F58050466101
:1015F00084F8446084F8455020684FF4803100F549
:1016000080504161206800F58050406900040CD58D
:101610002046FFF789FF20684FF4004100F5805015
:10162000416184F8446084F8455070BD2DE9FC4761
:101630004FF000060400B146009603D094F8440031
:1016400018B107E00120BDE8FC8784F8456020461A
:1016500000F0E2F86648016841F4804101600068EA
:1016600000F4804001906348016821F400010160AA
:101670000168226A11430160206800F5805001680A
:1016800041F00101016000F0C7FB05464FF4FA7715
:1016900009E000BF00F0C0FB401BB84203D90320A3
:1016A00004F8440F67E0206800F580500068C00728
:1016B000F0D12068006920F01C0500F0EBFC4E49D9
:1016C0004E4A0144914202D245F0080516E04C49C9
:1016D0004C4A0144914202D245F00C050EE04A49C1
:1016E0004A4A0144914209D3494908444949884238
:1016F00002D245F0040501E045F0100520680561BF
:101700004FF400420021204600F04CFA0125A8BB0E
:10171000FF20FFF7E9FD606888B300F07DFB80469D
:1017200041F288376A460121204600F0E9F800F0CE
:1017300073FBA0EB0800B84217D800984007F1D51A
:101740004FF480520021204600F02CFAB0B900F08E
:1017500063FB80466A460121204600F0D1F800F084
:101760005BFBA0EB0800B8420AD901212046FFF735
:10177000C7FC04F8445F0320667064E724E018E0C7
:1017800000988006E6D56A461F21204600F0B8F88A
:10179000D0B90098410703D54FF40061E16000E043
:1017A000E660800701D5A66019E04FF48040A06094
:1017B00015E0E068A168C00840EA510082B200214B
:1017C000204600F0EFF930B101212046FFF798FCE8
:1017D00084F8445036E740F6FF70FFF785FD494630
:1017E0002046FFF78DFC84F8445000202BE70000D2
:1017F000443802400438014000D3CEFEC0E1E4008A
:1018000040F1E9FD40787D0100796CFC005A6202EC
:10181000001F0AFA80F0FA02F0B587B004461421DE
:101820006846FEF7AEFD3149206888425BD13048FA
:101830000024016841F000710160016801F000714D
:101840000591016841F080610160016801F08061EB
:101850000591016841F000610160016801F00061DB
:101860000591016841F004010160016801F0040183
:101870000591016841F001010160016801F0010179
:101880000591016841F0020101600068022500F045
:10189000020005903220CDE9000502AA03260B279D
:1018A00082E8D0006946134800F0B8F98620CDE9F7
:1018B000000502AA694682E8D0000F4800F0AEF9A0
:1018C0004FF46050CDE9000502AA694682E8D000D5
:1018D0000A4800F0A3F9002205213D2000F00EFB8C
:1018E0003D2000F0FDFA07B0F0BD0000008002408E
:1018F000303802400008024000000240000402406C
:101900002DE9F047044690F84400914682281DD006
:10191000822084F84400226810694FF6FF7500F0B9
:101920001C03208A05EAC02018434FF4F86303EA39
:101930008111014321F0020040F00105156100F022
:101940006BFA064601274FF4803810E00220BDE80C
:10195000F08700BF00F060FA801B404505D304F813
:10196000447F002060700320F1E720680569E807E4
:10197000F0D12068406981B2C9F8001084F8447041
:101980000020E4E7014800680BF07AB96400002009
:10199000F8B5044690F84500012839D0012584F8AF
:1019A0004550022084F8440020680026016841F078
:1019B000080101602068006800902846FFF772FB6C
:1019C0002168009808602068016841F00401016006
:1019D0002068006800900120FFF764FB21680098F0
:1019E00008602046FFF76EFB206800F58050816993
:1019F00041F400518161206800F58050816941F017
:101A00000201816184F8445084F845600020F8BDEB
:101A10000220F8BDF8B5044690F84500012839D0F9
:101A2000012584F84550022084F84400206800F520
:101A30008050816921F400518161206800F5805057
:101A4000816921F00201816120680026016821F08E
:101A5000040101602068006800900120FFF722FB6C
:101A60002168009808602046FFF72CFB2068016879
:101A700021F0080101602068006800900120FFF754
:101A800011FB21680098086084F8445084F8456090
:101A90000020F8BD0220F8BDF0B590F845200023E5
:101AA000012A11D0012780F84570022280F84420D5
:101AB000002459B1C66A3268002A0ADA122100F8F5
:101AC000441F44700120F0BD0220F0BD00F8447FA7
:101AD000F7E740F2F455A9420BD9B1FBF5FCB1FB95
:101AE000F5F205FB1C1CBCF1000F00D0521C012AB2
:101AF00043D1326842F040523260C26AC1F30C01F5
:101B00005160C16A0A6842F000420A60C16AC9684D
:101B1000C16234E0D6F800C02CF0405CC6F800C0CA
:101B200033B9C66AD6F800C04CF0805CC6F800C075
:101B3000C66A7560561EB34214D1C66AD6F800C094
:101B40004CF0005CC6F800C0C2F10106C6EBC61638
:101B500006EB4606D0F82CC001EB8606C6F30C0651
:101B6000CCF80460C66AD6F800C04CF0004CC6F849
:101B700000C0C66A5B1CF668C6629342CAD301689D
:101B800001F580514A69520705D504224A6101686E
:101B900001F580514C6000F8447F44700020F0BD96
:101BA000704700002DE9F041044690F844004228B7
:101BB0001ED0422084F84400236818694FF6FF764F
:101BC00000F01C05208A06EAC02028434FF4F8657F
:101BD00005EA8111014390B241F003055861206884
:101BE000056100F019F9064601274FF4803810E02E
:101BF0000220BDE8F08100BF00F00EF9801B4045D7
:101C000005D304F8447F002060700320F1E72068CA
:101C10000569E807F0D184F84470EAE72DE9F84F48
:101C2000DFF8BCA1002201250AF1040B03264FF0C6
:101C30000F090BF1040E00BF0B6805FA02F42340F4
:101C4000A34270D10F7907F00307012F01D0022FB3
:101C500016D187684FEA420806FA08FC27EA0C0703
:101C6000D1F80CC00CFA08FC4CEA070CC0F808C00C
:101C70004768A7430C79C4F3001494403C43446084
:101C80000C79E443A4070AD0C4684FEA420C06FA70
:101C90000CF7BC438F6807FA0CF72743C7600C7931
:101CA00004F00304022C12D1D40800EB840CDCF8FD
:101CB00020405707FF0E09FA07F824EA0804D1F874
:101CC000108008FA07F848EA0408CCF82080046875
:101CD0004FEA420C06FA0CF7BC430F7907F00307F2
:101CE00007FA0CF7274307604C6814F4403F70D0A4
:101CF0003C4C276847F480472760246822F003079C
:101D000004F480440094384C07EB040CDCF80848D9
:101D100097074FEA177809FA08F7BC43334FB842E0
:101D200002D1002724E054E0314FB84201D101270D
:101D30001EE0304FB84201D1022719E02E4FB842C1
:101D400001D1032714E02D4FB84201D104270FE041
:101D50002B4FB84201D105270AE02A4FB84201D1E2
:101D6000062705E0284FB84201D1072700E00827E1
:101D700007FA08F72743CCF80878DAF80040574606
:101D8000D1F804C09C435FEACC3C00D51C433C60C6
:101D9000DBF800405F46D1F804C09C435FEA8C3C0E
:101DA00000D51C433C60DEF800407746D1F804C003
:101DB0009C435FEACC2C00D51C433C60084F0C3799
:101DC0003C68D1F804C09C435FEA8C2C00D51C43CE
:101DD0003C60521C102AFFF42FAFBDE8F88F0000C2
:101DE000003C014044380240003001400000024005
:101DF0000004024000080240000C024000100240B3
:101E00000014024000180240001C02400AB1816127
:101E100070470904FBE70000014880687047000034
:101E20007400002002488168027811448160704784
:101E3000740000200B4810B5016841F40071016086
:101E4000016841F480610160016841F480710160C2
:101E5000032000F073F80F2000F006F800F024F8DB
:101E6000002010BD003C024070B50D4D04464FF4FB
:101E70007A712878B1FBF0F00A490968B1FBF0F0FB
:101E800000F016FB48B9102C07D200222146501E44
:101E900000F034F800206C6070BD012070BD0000BF
:101EA00074000020800000200C4882B0016841F4DA
:101EB00080410160006800F4804000900748001FE6
:101EC000016841F0805101600068002200F08050FC
:101ED00000900F21901E02B000F010B8443802406C
:101EE000002809DB00F01F02012191404009800019
:101EF00000F1E020C0F8001170470000F0B40E4B74
:101F00001B680C46C3F30223C3F10705042D00D957
:101F10000425191D072901D2002300E0DB1E01263C
:101F200006FA05F1491E214099409E40761E164052
:101F30003143F0BC01F0E2BF0CED00E0064900F0D7
:101F4000070208684FF6FF03184040EA0220034AE0
:101F500010430860704700000CED00E00000FA0537
:101F60002DE9F0470E46050065D0DFF81481D8F85A
:101F70000000F7B200F00700B04207D288F8007006
:101F8000D8F8000000F00700B04254D128683D4C5A
:101F9000810712D5400703D5206840F4E050206047
:101FA0002878000703D5206840F46040206020684E
:101FB000A96820F0F000084320602878C0072DD0E1
:101FC000304968680839012812D0022813D0032844
:101FD00011D00968890700292DDA216821F0030151
:101FE00001432160FFF718FF814641F2883A0EE075
:101FF00009688903EFE709688901ECE7FFF70CFF3F
:10200000A0EB0901514502D90320BDE8F087206803
:10201000696800F00C00B0EB810FEFD1D8F8001028
:10202000404601F00701B14207D90770006800F08F
:102030000700B04201D00120E7E72878400705D526
:102040002068E96820F4E050084320602878000701
:1020500006D52068296920F4604040EAC10020606C
:1020600000F03EF82168084AC1F30311515CC840F2
:102070000649086006480068FFF7F6FE0020C4E73E
:10208000003C02400838024028730108800000200C
:1020900078000020014800687047000080000020A0
:1020A0000448054900680968044AC1F38221515C6B
:1020B000C84070478000002008380240387301088B
:1020C0000448054900680968044AC1F34231515C7B
:1020D000C84070478000002008380240387301086B
:1020E000154810B5006810F00C02144813D01449BC
:1020F000042A0FD0082A0ED10F4C241F226823680F
:1021000002F03F025B0207D52068C0F38810A0FBF5
:10211000010106E0084610BD2168C1F38811A1FB4A
:1021200000010023FEF7AEF82168C1F30141491C0C
:102130004900B0FBF1F010BD083802400024F40063
:1021400040787D012DE9F84F04006ED02078DFF84B
:102150004C93C007A9F104054AD009F104000168B5
:10216000C1F38101012908D00068C0F38100022871
:102170000AD1D9F80000400206D52868800337D577
:1021800060680028E1D033E06068B0F5803F10D08F
:10219000B0F5A02F286810D020F48030286028687F
:1021A00020F4802028606068A8B1FFF735FE06465D
:1021B0000DE0286840F48030F4E740F48020286087
:1021C000F7E700BFFFF728FE801B642873D8286854
:1021D0008003F7D50CE0FFF71FFE064605E000BFC1
:1021E000FFF71AFE801B6428F0D828688003F7D414
:1021F0002078DFF8AC8280074FF0000A3ED5A74870
:10220000001D016811F00C0F08D00068C0F38100B8
:1022100002280BD1D9F80000400207D428688007B3
:1022200016D5E068012800D112E033E1E068B8B1CA
:102230000120C8F80000FFF7EFFD064605E000BFEB
:10224000FFF7EAFD801B0228C0D828688007F7D571
:102250002868216920F0F80040EAC10028600DE0FC
:10226000C8F800A0FFF7D8FD064604E0FFF7D4FD4C
:10227000801B02281FD828688007F7D42078000721
:1022800022D5864F87486169703771B1012101609D
:10229000FFF7C2FD064604E0FFF7BEFD801B0228E3
:1022A00009D838688007F7D50EE0C0F800A0FFF71E
:1022B000B3FD064605E082E0FFF7AEFD801B022875
:1022C0007DD838688007F7D42078400768D5DFF8D4
:1022D000CCB100270BF13C0BDBF80000C0000BD4A5
:1022E000DBF8001041F08051CBF80010DBF8000063
:1022F000012700F0805000906B4E3068C00510D46C
:10230000306840F480703060FFF786FD009005E093
:10231000FFF782FD0099401A022850D83068C005A6
:10232000F6D55E4EA0686C3601280FD005283068BF
:1023300010D020F001003060306820F004003060E0
:10234000A068B8B1FFF768FD00900FE0306840F07A
:102350000100F4E740F004003060F7E7FFF75CFDB0
:102360000099411A41F28830814266D8306880076E
:10237000F4D50EE0FFF750FD009007E0FFF74CFDAD
:102380000099411A41F28830814256D8306880075E
:10239000F4D42FB1DBF8001021F08051CBF80010FD
:1023A000A069C8B33D49091D0968C1F3810102292B
:1023B0004AD00228504607D0C8F8600000E03CE050
:1023C000FFF72AFD04463BE04746C8F86000FFF7E8
:1023D00023FD064605E000BFFFF71EFD801B022817
:1023E0002BD828688001F7D4D4E907010843A16AF3
:1023F0002E4A490802EB0141626A41EA8211084310
:1024000094F82C1040EA0161C9F8001001203866E8
:10241000FFF702FD044606E03EE000BFFFF7FCFCCC
:10242000001B022809D828688001F7D534E000BFD6
:10243000FFF7F2FC001B022802D90320BDE8F88F49
:1024400028688001F4D427E00128F7D0D9F80000EB
:10245000E26900F4800191421CD1226A00F03F0140
:10246000914217D147F6C071626A0140B1EB821FF9
:1024700010D1A26A4FF0FF3300F4403103EB520257
:10248000B1EB024F06D194F82C1000F07060B0EB65
:10249000016F01D00120D1E70020CFE704380240CE
:1024A00000004742800E4742007000400000FFFFDE
:1024B00010B5401EB0F1807F01D3012010BD4FF058
:1024C000E02460610F21601701F018FD0020A06179
:1024D00007202061002010BD7047704770B590F84C
:1024E0003C20012A32D0012480F83C40022280F8AE
:1024F0003D2003685A689D6822F070060A683243DE
:102500005A60134B02689A4214D0B2F1804F11D036
:10251000104B9A420ED0104B9A420BD00F4B9A425E
:1025200008D00F4B9A4205D00E4B9A4202D00E4B68
:102530009A4204D1496825F080031943916080F8DC
:102540003D40002180F83C10084670BD022070BD5F
:10255000000001400004004000080040000C004062
:1025600000040140004001400018004010B5040084
:1025700003D094F83D0010B107E0012010BD002009
:1025800084F83C00204600F01FF8022084F83D004B
:10259000211D206801F0AAF9012084F8460084F882
:1025A0003E0084F83F0084F8400084F8410084F83D
:1025B000420084F8430084F8440084F8450084F81D
:1025C0003D00002010BD000008B501681048B1F1C1
:1025D000804F14D00F4A914219D1016841F0020195
:1025E00001600068002200F00200009005211D201B
:1025F000FFF784FCBDE808401D20FFF771BC0168AF
:1026000041F001010160006800F00100009008BD88
:10261000403802400004004070B5044690F83C0089
:102620000025012817D0012684F83C60022084F898
:102630003D002068826822F0770222F47F428260A7
:102640000868502838D00DDC20284FD005DC90B326
:10265000102811D14AE0022070BD302846D0402811
:102660000AD13BE060282FD070280DD0B0F5805FF4
:1026700003D0B0F5005F12D0012584F83D60002042
:1026800084F83C00284670BDCB68D1E90121206860
:1026900001F09DF92068816841F0770109E0CB687D
:1026A000D1E90121206801F092F92068816841F4A4
:1026B00080418160E1E719E0CA684968206801F05B
:1026C0005BFA5021206806E0CA684968206801F07A
:1026D00064FA6021206801F084F9CEE7CA6849688D
:1026E000206801F049FA40212068F4E72268014699
:1026F0001046F0E72DE9F0410D46040003D094F8B0
:102700003D0018B108E00120BDE8F081002084F808
:102710003C00204600F040F8022084F83D0020688C
:10272000816844F2070291438160211D206801F015
:10273000DDF8226890689169166A2B68AF690343D7
:1027400040F20330814341EA0721A868EF6908435A
:102750004FF6FC418843E96840EA072001432869B5
:102760002F6A000140EA0730084369686D6926F066
:10277000AA0646EA0515294393602268906154F839
:10278000460B0162012004F81F09E0752076E0760F
:102790002077A0750020B7E710B586B00446142155
:1027A0006846FDF7EEFD13492068884220D11248A3
:1027B0000021026842F001020260006800F001009E
:1027C00005900D481438026842F01002026000685B
:1027D00000F0100005904FF4206000900220CDE939
:1027E00001010120CDE9031069460448FFF716FAFC
:1027F00006B010BD00000140443802400010024005
:10280000704770B50446006801694FF00005C94380
:10281000890715D4C168C943890711D4E91E01612C
:1028200001202077206880698007204602D0FFF7CA
:10283000E7FF04E000F0BEF8204600F050F92577ED
:1028400020680169C943490717D4C168C9434907CA
:1028500013D46FF0040101610220207720688069A1
:1028600010F4407F204602D0FFF7CAFF04E000F0DA
:10287000A1F8204600F033F9257720680169C943A3
:10288000090716D4C168C943090712D46FF00801BB
:102890000161042020772068C0698007204602D0AB
:1028A000FFF7AEFF04E000F085F8204600F017F9CE
:1028B000257720680169C943C90617D4C168C9438F
:1028C000C90613D46FF01001016108202077206839
:1028D000C06910F4407F204602D0FFF791FF04E06A
:1028E00000F068F8204600F0FAF8257720680169C2
:1028F000C943C90708D1C168C943C90704D1891EA2
:102900000161204600F08EF920680169C94309067B
:1029100009D4C168C943090605D46FF0800101617B
:102920002046FFF7D9FD20680169C943490609D44B
:10293000C168C943490605D46FF0400101612046D2
:1029400000F0E2F920680169C94389060BD4C16827
:10295000C943890607D46FF0200101612046BDE814
:102960007040FFF7BABD70BD10B586B004461421A3
:102970006846FDF706FD2068B0F1804F14D10B4882
:102980000021026842F0010202600068022200F0A9
:102990000100059001200090CDE90121CDE903104F
:1029A00069460348FFF73AF906B010BD30380240D7
:1029B00000000240704770B5044690F83C000026C5
:1029C0000D4601280FD0012084F83C006AB1042A8A
:1029D0001DD0082A2FD00C2A3FD00126002084F8D1
:1029E0003C00304670BD022070BD206801F002F846
:1029F0002068816941F0080181612068816921F0C6
:102A000004018161206881692A69114311E020680D
:102A100001F020F82068816941F40061816120683B
:102A2000816921F480618161206881692A6941EAB4
:102A300002218161D2E7206801F042F82068C16973
:102A400041F00801C1612068C16921F00401C16140
:102A50002068C1692A69114311E0206801F064F817
:102A60002068C16941F40061C1612068C16921F435
:102A70008061C1612068C1692A6941EA0221C1619E
:102A8000ACE710B5040003D094F83D0010B107E0A6
:102A9000012010BD002084F83C00204600F01EF804
:102AA000022084F83D00211D206800F01FFF012056
:102AB00084F8460084F83E0084F83F0084F8400023
:102AC00084F8410084F8420084F8430084F844000C
:102AD00084F8450084F83D00002010BD7047704721
:102AE00010B50446022249B104290ED0082913D09A
:102AF00094F84100012816D0012010BD94F83E0042
:102B00000128F9D184F83E200FE094F83F00012815
:102B1000F2D184F83F2008E094F840000128EBD17E
:102B200084F8402001E084F841200122206800F070
:102B300041FF16492068164A884201D0904203D1CD
:102B4000436C43F4004343642068884213D0B0F1DF
:102B5000804F10D00F4988420DD00F4988420AD0CB
:102B60000E49884207D0904205D00D49884202D0D4
:102B70000C49884204D1816801F00701062903D07D
:102B8000016841F001010160002010BD000001401A
:102B9000000401400004004000080040000C004018
:102BA000004001400018004030B504460D46006862
:102BB000002200F0FFFE194B41F2111120688A102B
:102BC000984202D0164B984209D1036A0B4206D1B3
:102BD000036A134203D1436C23F400434364206827
:102BE000036A0B4206D1016A114203D1016821F048
:102BF0000101016001203DB1042D08D0082D09D04C
:102C000084F84100002030BD84F83E00FAE784F8E3
:102C10003F00F7E784F84000F4E7000000000140BF
:102C20000004014070B52F492DED028B82B088421F
:102C300054D12D4C6078401CC1B261700A294DD32B
:102C4000284D903D2868406A401CB0F500404FEA8E
:102C5000D0720090227000D5404286B2668008464D
:102C6000FDF77EFD9FED211B53EC112BFDF797FC2B
:102C700041EC180B3046FDF773FD9FED1E1B53EC26
:102C8000112BFDF78CFC9FED1D1B53EC112BFDF759
:102C900086FC53EC182BFDF7F4FCFDF7A0FD00EECD
:102CA000100A84ED010ABDEEC00A10EE100A009071
:102CB000B0F57A7F12DC01236A46194602200BF038
:102CC0000FFF94ED010A0F4800F074FD00F02EFD97
:102CD000296847F6FF7048620020607002B0BDECC2
:102CE000028B70BD8C3600206800002000000000C0
:102CF000004090400000000000005940000000002B
:102D000000004E40C0040020704718B5034690F8FC
:102D10003E00202822D181B17AB193F83C000128ED
:102D20001CD0012083F83C001863184601F05CF8C1
:102D3000002803D1196B012901D0012018BD1968A1
:102D40000A684968009119680C3151E8002F42F077
:102D5000100241E80024002CF5D118BD022018BD56
:102D600000680649884208D1054901201E220870E2
:102D7000044901F12000FFF7C8BF7047001001406F
:102D800070000020D436002070470000F8B50168BC
:102D900004460868CA684B6910F00F0F4FF0000531
:102DA00059D003F0010602F49077374365D0C1078C
:102DB00005D0D10503D5216C41F001012164410703
:102DC00005D5D90703D0216C41F0020121648107A8
:102DD00005D5D90703D0216C41F004012164010716
:102DE00007D502F02001314303D0216C41F00801E6
:102DF0002164216C00293AD0800604D5900602D5C2
:102E0000204600F00BFF20684069216CC0F3801061
:102E1000090700D460B3204600F0D9FE206840695D
:102E2000400621D52068143050E8001F21F04001F1
:102E300040E80012002AF5D1A06BA8B16C490165E9
:102E4000A06BFEF73EFA002811D0A06B016D01B017
:102E5000BDE8F040084783060FD593060DD5204600
:102E6000BDE8F84000F0DABE2046FFF78DFFF8BD60
:102E70002046FFF789FF2564F8BD266B2023012E2D
:102E800079D1C60677D5D60675D50868486800900A
:102E90004869400640D5A16B086840680004000CF2
:102EA000EAD0A28D8242E7D9E085C869B0F5807F7B
:102EB0002DD020680C3050E8001F21F4807140E8CC
:102EC0000012002AF5D12068143050E8001F21F0CC
:102ED000010140E80012002AF5D12068143050E8C2
:102EE000001F21F0400140E80012002AF5D184F8CB
:102EF0003E30256320680C3050E8001F21F010019F
:102F000040E80012002AF5D1A06BFEF791F9A08DE0
:102F1000E18D401A81B229E0A08DE18D401A81B285
:102F2000E08D0028A8D00029A6D020680C3050E8F9
:102F3000002F22F4907240E80026002EF5D1206880
:102F4000143050E8002F22F0010240E80026002E45
:102F5000F5D184F83E30256320680C3050E8002F0E
:102F600022F0100240E80023002BF5D12046FFF7A5
:102F7000F7FEF8BDFFE705062BD5150629D594F811
:102F80003D002128F5D1A068B0F5805F01D120690E
:102F9000B0B1206A411C2162216800784860E08C51
:102FA000401E0004000CE084E3D12068C16821F0D9
:102FB0008001C1602068C16841F04001C160D8E76C
:102FC000206A0088C0F308004860206A801C2062E4
:102FD000E5E74006CDD55006CBD5CA68204622F09D
:102FE0004002CA6084F83D3000F0CFF8C1E700002D
:102FF000BF3B000870B5040004D094F83D000025E4
:1030000010B106E0012070BD84F83C50204600F06D
:1030100023F8242084F83D002068C16821F4005181
:10302000C160204600F05AFE2068016921F49041F9
:1030300001612068416921F02A0141612068C1686D
:1030400041F40051C1602564202084F83D0084F8DB
:103050003E00002070BD000010B586B0044614216B
:103060006846FDF78EF918492068884229D117482B
:103070000021026842F010020260006800F01000B7
:10308000059012481438026842F00102026000689C
:1030900000F0010005904FF4C06000900220CDE9DF
:1030A0000101032003900720049069460848FEF7B9
:1030B000B5FD002205212520FEF720FF2520FEF783
:1030C0000FFF06B010BD0000001001404438024060
:1030D00000000240704700002DE9F843044690F8D4
:1030E0003D001F4616460D4620284CD1C5B1BEB145
:1030F00094F83C00012846D0012084F83C004FF0B1
:103100000008C4F84080212084F83D00FEF784FECA
:10311000A6848146E684A068B0F5805F03D004E011
:103120000120BDE8F883206928B12E465FF0000534
:1031300084F83C800EE00026FAE78021204600F06B
:103140006EFEA0B9AEB116F8010B21684860E08CA4
:10315000401EE084E08C4B464FF0000200970028B0
:10316000EBD14FF04001204600F059FE30B1032072
:10317000D7E735F8020BC0F30800E6E7202084F813
:103180003D000020CDE70220CBE77047FEE70000BE
:1031900000B587B01C2206496846FDF7CBF8002130
:1031A000684609F0C7FD0349086107B000BD00008B
:1031B000B87201080C00002030B587B014216846B1
:1031C000FDF7DFF81D480024016841F004010160AB
:1031D000016801F004010591016841F0800101607E
:1031E000016801F080010591016841F00101016071
:1031F000016801F001010591016841F010010160D1
:10320000016801F010010591016841F002010160BF
:1032100000680B4D00F002000590002201212846B5
:10322000FEF7F4FD01210091CDE90114694628461D
:103230000394FEF7F3FC07B030BD000030380240C5
:1032400000080240F0B5554C8DB0C0222270A82174
:1032500061700027A770BE20E070251DFF20287038
:103260006870A8702E1DEF7032707170B7700120F9
:10327000F0703946002011F0B3FD208841BA0A04ED
:10328000A17842EA0123E27844BA2404134344EAD1
:1032900001241B06A4B243EA042344BA40BA000442
:1032A00040EA0120E4B243EA04231043A5F11001EF
:1032B00043EA10600860288841BA0A04A97844BA31
:1032C00042EA0123EA782404134344EA01241B065A
:1032D000A4B243EA042344BA40BA000440EA0120FD
:1032E000E4B243EA04231043A5F10C0143EA106061
:1032F0000860308841BA0A04B17844BA42EA01232E
:10330000F2782404134344EA01241B06A4B243EADE
:10331000042344BA40BA000440EA0120E4B243EA7C
:103320000423104343EA1060A5F10801A5F1080346
:1033300008601B481B490097CDE901101A1F111F97
:10334000194808F0D1FF184809F0E8F9164C94F82C
:103350002D004007204602D509F0F4FA01E009F0FB
:10336000E3F91249104809F033FA0A9701210AA833
:103370000B9709F059FC09491C22103908601C31CF
:10338000C1E900400A4903A8FCF7D4FF034903A898
:103390000C3109F0CFFC0DB0F0BD00005000002052
:1033A000B14F0108F9620008E0040020156400082C
:1033B000F072010810B58CB024216846FCF7E1FFDB
:1033C00000241648099414490A94C0E900144FF6E1
:1033D000FF71C0E902410461446184610320CDE9C9
:1033E00000040120CDE902040494CDE905400794CE
:1033F00069460A480894FFF77DF908B1FDF716FF02
:10340000099409A905480A94FFF768F8002801D033
:10341000FDF70CFF0CB010BD00000140FC35002092
:1034200010B58EB000240794089409940A940B9464
:103430001C2168460C94FCF7A4FF1D484FF0804106
:10344000C0E9001442F21071C0E9024104618461D4
:10345000FFF78CF808B1FDF7E9FE4FF480500790B4
:1034600007A91348FFF7D8F808B1FDF7DFFE1048A9
:10347000FFF707FB08B1FDF7D9FE0B940BA90C4829
:103480000C94FFF72BF808B1FDF7D0FE6020CDE9D2
:10349000000402940022694605480494FFF78BFA61
:1034A00008B1FDF7C3FE0248FFF75EFA0EB010BD8B
:1034B0004436002010B586B00024174800940194CB
:1034C0000294039404941349059401604721C0E9D0
:1034D000011442F21071C0E903148461FFF746F849
:1034E00008B1FDF7A3FE4FF48050009069460A48EA
:1034F000FFF792F808B1FDF799FE049404A9064875
:103500000594FEF7EBFF002801D0FDF78FFE06B013
:1035100010BD0000000400408C3600200E4810B59D
:103520000C4901604FF4E1314160002181600C22BF
:10353000C160C0E904128161C161FFF75BFD08B1A0
:10354000FDF774FE04491E22BDE8104020390248F0
:10355000FFF7DBBB00100140F4360020FEE700005F
:10356000A8B04FF00830249024A9002001F08CFE70
:1035700025A93FA008F038FA25A803F089FF0446E2
:1035800002463BA13FA000F08FFC204604F0AEFABB
:103590000DF17408434D44F68E19012700244FF4B1
:1035A0007A76269006F0F2FB82461C223E491DA840
:1035B000FCF7C0FE68681D90A8681E90E8681F9020
:1035C000CDE90048394B4A4626A9504606F0D0F8C6
:1035D000304612F0D5FC0023354A3649504607F0F4
:1035E0004DFB35A0CDE90007364B002236A15046F1
:1035F00007F09CFB30A0CDE90007324B002235A13B
:10360000504607F093FB23E034480068FDF7D4F8F8
:10361000244ACDE900011A32642104A800F054FCC8
:1036200004A8FCF7CBFE04A90C54304612F0A8FC09
:1036300004A8FCF7C3FE83B229A02249CDE90210F9
:103640001849009404AA01941431504607F006F971
:10365000504606F043FB0028D6D1504606F022FD26
:10366000504606F039FB304612F08AFC9AE700001B
:103670006D712E746F6E6778696E6D616F2E636FFA
:103680006D000000686F7374206E616D65203A20D4
:103690002573202C20686F73745F6970203A202591
:1036A000730A00000C000020D47201089F1000086B
:1036B0006D950008B5950008737562736372696251
:1036C000650000005D4900087365745F746172678E
:1036D000657400007365745F737300006C000020F4
:1036E0007075626C69736800FEE790EC020A70EE18
:1036F000600AC0ED050A90ED070A30EE201A80ED51
:10370000071A90ED020AD0ED031A20EE200A01EE0E
:10371000810A90ED061AD0ED041A30EEC11A01EEBE
:10372000810A80ED010AC0ED060A70471C4910B5F8
:103730000868002819D11B48FFF7D7FF8868401C8C
:1037400088601848D0ED000A70EEC00AF5EEC00A95
:10375000F1EE10FA01DCF1EE600A10EE900AB0F121
:103760007E5F03DC4868401C486010BD0020486054
:1037700010EE100AFDF720F89FED0B1B53EC112BF8
:10378000FCF70DFFFCF7F9FF09490968CA6A824294
:1037900001D8C86A02E0002800DA0020486310BDA2
:1037A00000000020C00400206666666666E64040B1
:1037B0004436002080ED010A704700EE101AB8EE82
:1037C000C00A80ED000A70471CB5FFF73BFD0024DE
:1037D0004FF40075009423462A4608A10B48019433
:1037E00013F054F9009400232A4609A10D480194CE
:1037F00013F04CF9012009F0F5F8FBE74D717474F2
:10380000546573745461736B0000000061350008E7
:10381000687474707365727665725F7468726561DE
:10382000640000007566000810B5FEF7FBFA13F09F
:1038300085F9012803D0BDE8104012F023BD10BD6A
:1038400030B593B030216846FCF79BFD14210CA8DD
:10385000FCF797FD1C480025016841F0805101608C
:10386000006800F0805011901848016841F48041D0
:1038700001600068022400F4804011900120009053
:10388000000401908001CDE9064019200890A02095
:10389000CDE9090404200B906846FEF753FC08B1FB
:1038A00072B6FEE70CA90F2081E831004FF480507A
:1038B000CDE90F0502210CA8FEF752FB002801D02C
:1038C00072B6FEE713B030BD4038024000700040D1
:1038D0000248016841F470010160704788ED00E022
:1038E0000148FEF78EBF00008C360020F0B502685C
:1038F000254C264D264E274F274B4FF0804CA0429B
:1039000009D0604507D0A84205D0B04203D0B842E4
:1039100001D0984204D122F0700E4A6842EA0E02A9
:10392000A0421BD0604519D0A84217D0B04215D094
:10393000B84213D0984211D0184DA8420ED0184D5D
:10394000A8420BD0174DA84208D0174DA84205D069
:10395000164DA84202D0164DA84203D122F440755C
:10396000CA682A434D6922F080022A4302608A68AD
:10397000C2620A688262A04201D0984201D10969FC
:10398000016301214161F0BD0000014000040040DD
:1039900000080040000C00400004014000400140CD
:1039A000004401400048014000180040001C004055
:1039B0000020004010B501F01F030121046A994066
:1039C0008C430462016A9A401143016210BD10B534
:1039D000846842EA032224F47F440A43224382603B
:1039E00010BD826822F070020A4342F00701816034
:1039F00070470000F0B5026A22F001020262036A19
:103A000042688469124E24F073050C682C4323F03D
:103A100002058B682B430D4DA84201D0B04205D161
:103A200023F00807CB683B4323F00403A84201D0EE
:103A3000B04205D14D6922F4407215438A692A4388
:103A400042608461496841630362F0BD0000014047
:103A500000040140F0B5026A22F010020262026A1C
:103A6000436884690D6824F4E64444EA05248D68BB
:103A700022F0200242EA05120F4D104EA84201D05A
:103A8000B04206D1CF6822F0800242EA071222F04B
:103A90004002A84201D0B04207D14D6923F44063EF
:103AA00043EA85038D6943EA85034360846149687D
:103AB00081630262F0BD000000000140000401408B
:103AC000F0B5026A22F480720262026A4368C46935
:103AD00022F4007224F073050C68124E2C438D689A
:103AE00042EA05220E4DA84201D0B04206D1CF686D
:103AF00022F4006242EA072222F48062A84201D046
:103B0000B04207D14D6923F4405343EA05138D6950
:103B100043EA05134360C4614968C1630262F0BDB2
:103B2000000001400004014030B5026A22F48052D6
:103B30000262046A4268C3690D6823F4E64343EAFB
:103B400005238D6824F4005444EA0534084DA84246
:103B500002D0084DA84204D14D6922F4804242EAC5
:103B600085124260C36149680164046230BD00008F
:103B7000000001400004014010B5036A046A24F00B
:103B800001040462846924F0F00444EA021423F07E
:103B90000A020A438461026210BD10B5036A23F071
:103BA000100303628369046A23F4704343EA023218
:103BB00024F0A00343EA01118261016210BD10B537
:103BC000806B0021C185C184FFF7DEF810BD01685C
:103BD0000C3151E8002F22F4907241E80023002BB1
:103BE000F5D10168143151E8002F22F0010241E8BB
:103BF0000023002BF5D1016B012909D101680C319B
:103C000051E8002F22F0100241E80023002BF5D1EB
:103C1000202180F83E1000210163704708B590F81C
:103C20003E10222901D0022008BD82684FF4805343
:103C30009A4201D1016921B1816A9A421BD04AB1ED
:103C40000AE00268816A5268C2F308020A80816A47
:103C5000891C08E0026972B10268526802F07F02B2
:103C60000A70816A491C8162C18D491E0904090CD0
:103C7000C18503D019E002685268F1E70168CA689B
:103C800022F02002CA600168CA6822F48072CA6009
:103C900001684A6922F001024A61202180F83E1041
:103CA000016B012903D0FFF715FA002008BD0021A0
:103CB000016301680C3151E8002F22F0100241E845
:103CC0000023002BF5D101680A68D20602D50A68E4
:103CD00049680091818DFFF743F8E6E770B5044627
:103CE00000680169E26821F44051114301612169D2
:103CF000A068E26908436169114308432168CA6802
:103D000049F20C639A430243CA6020684169A26980
:103D100021F440711143416131492068884202D049
:103D20003049884202D1FEF7CBF901E0FEF7B8F93D
:103D3000E2690023192164253226B2F5004F62683A
:103D400028D0A0FB0101930F9200FCF79BFA0146DB
:103D5000B0FBF5F06FF01802504301EB800006EB6A
:103D60000010B0FBF5F000F0F002B1FBF5F002EB53
:103D70000012B1FBF5F06FF01803584301EB80001F
:103D800006EB0010B0FBF5F000F00F0021681044C6
:103D9000886070BDA0FB010192185B41FCF772FACC
:103DA0000146B0FBF5F00201B1FBF5F06FF018032E
:103DB000584301EB800006EBC000B0FBF5F000F0CB
:103DC000F80002EB4002B1FBF5F0584301EB800034
:103DD00006EBC000B0FBF5F000F00700D6E70000EE
:103DE000001001400014014081628285C2850021DB
:103DF0000164222280F83E2080F83C100168CA68E5
:103E000042F48072CA6001684A6942F001024A6164
:103E10000068C16841F02001C160002070472DE9B1
:103E2000F041984617460E460446069D27E0681C5A
:103E300025D02DB1FDF7F0FFA0EB0800A8421ED958
:103E400020680C3050E8001F21F4D07140E80012C7
:103E5000002AF5D12068143050E8001F21F001013C
:103E600040E80012002AF5D1202084F83D0084F8B3
:103E70003E00002084F83C000320BDE8F08120686B
:103E8000006836EA000004D00020B842CFD00020FD
:103E9000F3E70120F9E700000148FEF777BF0000D3
:103EA000F4360020FEE700000FB4054B10B503A95F
:103EB000044A029800F008F910BC5DF814FB0000F9
:103EC000C5640008CC0100200FB47CB50C0009AD1E
:103ED00001D0611E00E00021CDE90001064B6A46D9
:103EE0002946089800F0F0F8002C02D0009A002132
:103EF00011707CBC5DF814FBCF4700080907090E60
:103F0000002804DB00F1E02080F80014704700F086
:103F10000F0000F1E02080F8141D70470048704742
:103F2000D001002002E008C8121F08C1002AFAD1FF
:103F300070477047002001E001C1121F002AFBD129
:103F4000704700002DE9FF5F82B00021DDE90430F9
:103F5000020DDDF840B0034318D044F61050A2F231
:103F6000FF3242431514119801281FD0A5EB0B0016
:103F7000401C5FEA000A4FF000064E4FDFF8389110
:103F8000B046504615D5CAF1000413E0119801243B
:103F90004AA3012801D16FEA0B010298119AC0E9E6
:103FA0000031C0E9024206B0BDE8F09FCBF100004D
:103FB000DFE704460021404A491842EB0450CDE9AE
:103FC000001012E0E00707D032463B464046494623
:103FD000FCF7E5FA8046894632463B4610461946CC
:103FE000FCF7DDFA06460F466410002CEAD1DDE945
:103FF0000401DDE90023BAF1000F06DAFCF7CFFA7D
:1040000042464B46FCF7CBFA05E0FCF73AFB42464A
:104010004B46FCF736FB04460E460022284BFCF7C5
:10402000FDFD03D84FF0FF30014607E00022254B8D
:1040300020463146FCF732FDFCF7D7FD102409E09D
:10404000002C0ADB0A220023FCF71CF9039B303208
:104050001A55641E50EA0102F2D1641C039AC4F19D
:1040600011031444119A012A03D0012208430DD1EF
:104070000AE0084304D000204FF0110B119072E7C2
:10408000A3EB0B056D1E0DE05B4504DD4FF0000258
:1040900005F1010504E003DA4FF00002A5F1010586
:1040A000002AECD002981199C0E90231C0E900451C
:1040B00079E70000000014400000F03F30000000ED
:1040C0000000F0430000E03F2DE9FF4F95B09A4615
:1040D000884606460025EEE1252877D100242746AC
:1040E000F94A0121039400E0044316F8013F203B04
:1040F00001FA03F01042F7D130782A2811D06FF07E
:104100002F033078A0F13002092A16D8039A44F020
:10411000020402EB820203EB42021044761C03907D
:10412000EFE758F8042B0392002A03DA504244F4D4
:104130000054039044F00204761C30782E2816D1E7
:1041400016F8010F44F004042A280DD06FF02F0256
:104150003078A0F13003092B09D807EB870302EB75
:104160004303C718761CF3E758F8047B761C3078B5
:104170006C280FD006DC4C2817D068280DD06A2890
:1041800014D104E0742810D07A280FD10DE044F443
:1041900000140AE044F4801401E044F440147278FE
:1041A000824202D104F58014761C761C3078662891
:1041B0000BD013DC582877D009DC002875D04528AF
:1041C000F6D04628F4D047281AD193E118E06328A6
:1041D00035D0642879D0652812D18BE1702873D04E
:1041E00008DC6728F1D069286FD06E280DD06F28C1
:1041F00006D1ACE073282CD0752874D0782853D021
:104200005246179990476D1C54E1C4F3025002289E
:1042100009D003280DD0D8F8001004280DD00D6067
:1042200008F1040846E1D8F80010EA17C1E9005285
:10423000F6E7D8F800100D80F2E70D70F0E718F8F7
:10424000041B8DF8001000208DF80100EB460120C2
:1042500003E058F804BB4FF0FF3061074FF0000156
:1042600002D40DE009F101018946B9420FDA814516
:10427000F8DB1BF809100029F4D108E009F101016D
:1042800089468142FADB1BF809100029F6D1039810
:104290005346A0EB090721463846179A00F080FAEA
:1042A000284400EB090507E044E008E10DE01BF8B5
:1042B000010B524617999047B9F10109F7D25346BD
:1042C00021463846179AF2E039E00A21C4F3025237
:1042D0004FF0000B0091022A06D058F8040BC117CA
:1042E000032A09D00AE023E008F1070020F00702C2
:1042F000F2E80201904605E000B2C117042A01D19C
:1043000040B2C117002906DA0A460021404261EB9B
:1043100002012D2202E0220504D52B228DF8042073
:10432000012203E0E20701D02022F7E7914657E09F
:104330000A2100E010214FF0000B00910BE010214A
:104340004FF0000B44F004040827009103E008201C
:104350004FF0000B0090C4F30252022A05D058F827
:10436000040B0021032A08D008E008F1070020F020
:104370000702F2E80201904603E080B2042A00D16D
:10438000C0B24FF0000922072AD53278702A07D030
:10439000DDF800C08CF0100C5CEA0B0C05D00EE0D0
:1043A00040228DF80420012208E050EA010306D0E3
:1043B00030238DF804308DF8052002229146009BB1
:1043C00083F0080353EA0B030AD150EA010201D13A
:1043D000620705D530228DF804204FF001097F1EB9
:1043E0003278582A04D039A20C920CAA02920BE01F
:1043F0003BA2F9E75B46009AFBF744FF0C9B9B5CF2
:10440000029A521E0292137050EA0102F2D10298EF
:1044100004A9081A00F1200B600702D524F48034A7
:1044200000E001275F4502DDA7EB0B0000E0002064
:1044300000EB0B01009003984944401A0390E003FD
:1044400006D453462146179A039800F0A9F905446B
:10445000002706E001A85246C05D179990476D1CE1
:104460007F1C4F45F6DBE0030CD553462146179AD7
:10447000039800F095F9054404E03020524617995E
:1044800090476D1C0099481E00900029F5DC08E05B
:104490000298029952460078491C02911799904758
:1044A0006D1CBBF10001ABF1010BF1DC5BE100F035
:1044B00065F90544761C307800287FF40DAE19B0FC
:1044C0002846BDE8F08F0000092801003031323362
:1044D0003435363738396162636465660000000040
:1044E000303132333435363738394142434445462A
:1044F00000000000600700D4062708F1070020F044
:104500000700F0E80223804603F0004C5FEA0C004D
:1045100001D097A009E0200501D596A005E0E007AD
:1045200001D095A001E0AFF24C001390307823F059
:10453000004365280CD006DC452809D046281DD04C
:1045400047287FD13BE0662818D067287AD136E02B
:104550000021112F01DB112000E0781CCDE90001C2
:1045600004A90CA8FFF7EEFCDDE90D010C9A4FF051
:10457000000B07F10109109200914EE04FF000404E
:104580000097CDE9011004A90CA8FFF7DBFCDDE9D9
:104590000D020C9B0F994FF0000B91461093009267
:1045A00011B9791C00EB0109B7EB090003D4C0F184
:1045B000FF3B07F10109A9EB0700019042E0012F41
:1045C00000DA01270021112F01DD112000E038461B
:1045D000CDE9000104A90CA8FFF7B4FCDDE90D0149
:1045E0000C9A00914FF0000BB946109221070FD49E
:1045F000009A4A4503DA914601E0A9F10109B9F1AF
:10460000010F05DD109AA9F10101515C3029F4D0A8
:10461000B84202DA10F1040F03DA0121CDE90110EA
:1046200010E0002803DC8344A9EB000102E0411CF8
:10463000494500DD8946A0EB0B00401C01904FF07E
:1046400000400290200705D40198484502DB4FF056
:10465000FF30019000208DF84B0002980DF14B07C0
:10466000B0F1004F25D002200C902B200D90029825
:1046700000280CDA404202902D200D9007E00A211C
:104680000298FCF7C8F83031029007F8011D0C9928
:10469000481E0C900029F2DC02980028EFD1791E08
:1046A0000D980870307800F0200040F0450007F8C1
:1046B000020D11A8C01BC01D02901398007800B114
:1046C000012000EB0901019801EBE071029801441F
:1046D0000398401A401E0390E00306D45346214637
:1046E000179A039800F05CF805441398007818B105
:1046F0005246179990476D1CE00323D55346214637
:10470000179A039800F04CF805441BE0BBF1000F2A
:1047100007DB0098584504DD1098179910F80B0036
:1047200001E0179930205246904701980BF1010B98
:10473000401E05F10105019004D12E205246179923
:1047400090476D1CB9F10001A9F10109DEDC05E01B
:1047500017F8010B5246179990476D1C0299481E95
:1047600002900029F4DC53462146179A03989EE6EE
:104770002D0000002B000000200000002DE9F0417A
:10478000044600251E461746880404D405E0394631
:104790002020B0476D1C641EF9D52846BDE8F08185
:1047A0002DE9F041044600251E469046C80301D578
:1047B000302700E02027880404D505E0414638462C
:1047C000B0476D1C641EF9D52846BDE8F0814A68E3
:1047D000002A06D00A68531C0B6010704868401EFF
:1047E000486070472DE9F04790460E4604006FF090
:1047F000050555D004F1140081460AF08AFA002814
:104800004ED0EF1F002E3DD0B8F1000F06D032A3DE
:1048100040F22A223DA147A0FFF746FB2078616ABB
:1048200006F07AFE05004FF0FF383DD06E600AF0CA
:1048300091F9294648460AF062FAA0B36C68002153
:1048400020460AF0A3FD002120460EF0E9FA0021DF
:1048500020460FF025F80022114620460DF014FBEB
:10486000002120460BF002FB0020686005F11000DB
:1048700004460AF021FA20460AF03EFA284606F0DD
:10488000FDFF1FE0384604F055F9014648460AF09E
:1048900036FA28B9636A1BB10022114620469847B0
:1048A0002846BDE8F0870FE0384604F043F901469A
:1048B00048460AF024FA28B9636A1BB1002211465F
:1048C000204698474046ECE7636A1BB10022114638
:1048D000204698470020E4E72E2E2F4D6964646C33
:1048E0006577617265732F54686972645F50617295
:1048F00074792F4C7749502F7372632F6170692F31
:104900006170695F6D73672E630000006578706584
:104910006374206E6577706362203D3D204E554C78
:104920004C206F7220657272203D3D204552525FCF
:104930004F4B0000417373657274696F6E202225BE
:104940007322206661696C6564206174206C696EF5
:104950006520256420696E2025730A0010B5044681
:1049600005A1FBF732FD002805D02046BDE8104028
:1049700003A1FBF72ABD10BD7075626C69736800F6
:1049800073756273637269626500000004E000BFC2
:1049900011F8013B1844C0B2521ED2B2F8D270478F
:1049A0002DE9F047244E254D002400BF55F8240082
:1049B00020B1641CE4B2042CF8D329E0042C27D2E3
:1049C0002E2010F0B6FE07004FF0000812D04FF472
:1049D000806900BFFBF79CFC82B24A45FAD31849B4
:1049E000384610F05FFC10F1080FF3D020B13846C4
:1049F00010F0E6FE474604E000221249384610F067
:104A00009BFE45F824701FB134702046BDE8F08746
:104A100030780021401CC0B2042800D3002055F893
:104A200020200AB13070F1E7491C401CC9B2C0B265
:104A30000429F1D30420E9E7FC0000206874002079
:104A4000A4740108C14E000801004FF000000AD014
:104A5000C97A4A1C022A06D2034A02EB810149683C
:104A6000002900D001207047000100202DE9F35FEC
:104A7000DFF88880064600EB0611A8F58869002556
:104A800009EB0114AA4604F1100B00BF05EB450722
:104A9000404658F8273053B100EB87010A7AB242FA
:104AA00005D14A6858460199984748F827A06D1CD7
:104AB000EDB2042DEAD3002104254846B1420DD0C1
:104AC00001EB011200EB0212937A022B06D1D27B8A
:104AD000E37B9A4202D1E573BDE8FC9F491CC9B251
:104AE0000429EBD3E07B0428F6D2054E56F82000CB
:104AF00010F066FEE17B46F821A0ECE7B8780020D4
:104B0000687400202DE9F0410746324E00EB071093
:104B100006EB0014042F06D32FA340F21C423AA147
:104B200040A0FFF7C1F9A07A002850D000254FF02F
:104B3000010801280CD0022821D0032841D0BDE86B
:104B4000F04125A340F25B4240A136A0FFF7ACB98B
:104B5000FBF7DEFB81B2002000EB001206EB021235
:104B6000937A022B02D112898A42F1D0401CC0B242
:104B70000428F1D321810220A072E57218E0207B85
:104B8000401E10F0FF00207321D1607B401CC0B29A
:104B90006073042805D020733846BDE8F04100F06A
:104BA0009FBA2046FFF750FF30B1E07A401CE07218
:104BB00084F80C806573EFE700213846FFF756FF55
:104BC00004E0206810B1401E206000D1A572BDE84D
:104BD000F0810000787400202E2E2F4D6964646CE3
:104BE0006577617265732F54686972645F50617292
:104BF00074792F4C7749502F7372632F636F7265EE
:104C00002F646E732E630000617272617920696E89
:104C1000646578206F7574206F6620626F756E64AE
:104C200073000000417373657274696F6E202225F2
:104C30007322206661696C6564206174206C696E02
:104C40006520256420696E2025730A00756E6B6EE1
:104C50006F776E20646E735F7461626C6520656E41
:104C60007472792073746174653A00002DE9F0471D
:104C70008A46814614464FF6FF782146504609F091
:104C800083F805002BD44046844228D0641CC5F329
:104C90008111A4B2032923D017E02146504609F020
:104CA00073F806001BD499F80000FBF72AFB0746AF
:104CB000F0B2FBF726FB874211D1404644450FD0A6
:104CC000641CA4B209F101096D1E002DE5DC09F197
:104CD00001092146504609F057F8002802DA4046FB
:104CE000BDE8F087C9D140468442F9D0641CA0B227
:104CF000F6E700002DE9FF5FDFF824819946924630
:104D00000F4600244FF4807508F5886604EB041004
:104D100008EB0011887A02280FD12A46103100983A
:104D200003F0B2FF48B900BF00EB400156F8211074
:104D3000B9B1401CC0B20428F6D3641CE4B2042C00
:104D4000E4D3DFF8E0B0002104209BF801200C46FA
:104D500004EB041308EB0315AB7ABBB1032B0AD0A9
:104D600010E000EB400046F820A006EB8000C0F801
:104D70000490047251E0AB7BD31ADBB28B4201D9B1
:104D800019462046641CE4B2042CE1D3042C09D15A
:104D9000042812D200EB001108EB0115A97A0329AF
:104DA0000BD104465FF0000000EB400156F82110E3
:104DB00041B1401CC0B20428F6D34FF0FF3004B01C
:104DC000BDE8F09F00EB400016EB8006F5D0012017
:104DD0003472A872AA73C6E900A9FF2F00D3FF2777
:104DE0003A4605F110000099FBF7A4FAE9194FF0D3
:104DF000000881F81080FFF7D3FDE873042804D37E
:104E000085F80A80C6F80080D7E79BF80110204695
:104E1000491C8BF80110FFF775FE6FF00400CEE718
:104E200078740020FC0000202DE9F05F9A4693463C
:104E30000D0006466FF00F0408D03EB1307828B15F
:104E40003046FBF7BBFA8046FF2802D92046BDE872
:104E5000F09F2946304602F055FA30BB154F00242A
:104E60004FF4807904EB041007EB0011887A0328D3
:104E700005D14A463046103103F006FF70B1641C7C
:104E8000E4B2042CEED30C48006880B153465A4675
:104E900041463046BDE8F05FFFF72CBF2DB104EB73
:104EA000041007EB0010406828600020CFE76FF087
:104EB0000500CCE778740020000100207047000056
:104EC0002DE9F04F10898DB09A469146102866D38F
:104ED00000230C2207A9484608F044FB0C285ED1A9
:104EE000BDF81C0002F0C0FFDFF8E881002500BF1C
:104EF00005EB051208EB0216B17A02297ED1318941
:104F00008142FBD1BDF8200002F0AEFF0446BDF89F
:104F1000220002F0A9FF07469DF81E0000063ED5BC
:104F2000012CDCD1F17A6C4ADAF8000052F8211039
:104F30008842D4D10C22494606F11000FFF796FEB4
:104F40000446A0F57F40FF3829D0234604220AA951
:104F5000484608F007FB042821D1BDF82A10B1F516
:104F6000807F1CD1BDF82810B1F5807F17D1241D9A
:104F7000B4F5803F13D29DF81F00A4B200074FF094
:104F8000000A4FF0030B5CD03046FFF75DFDB0B375
:104F900086F80DB0012030732846FFF7B3FD94E08A
:104FA0004E462146641CA4B2304608F0EDFE0028AF
:104FB0007EDB002C7CD0C0F3811103290BD031891A
:104FC0002044884274DA84B22146304608F0DCFE80
:104FD00000287ADBE5D14FF6FF70844275D0641C5F
:104FE000A4B2844271D023460A2204A9484608F09C
:104FF000B9FA0A2869D14FF4803601E060E025E073
:105000000A34B44261D2BDF812103012A4B2814207
:1050100008D1BDF81010814204D1BDF81800B0F5D8
:10502000806F23D0BDF8180002F01EFF2044B0426C
:105030004BD2BDF8180002F017FF20447F1E84B247
:10504000BFB21FB1B9F80800A042A9D8484608F07D
:1050500015FB00212846FFF709FD05EB051208EBBB
:10506000021181F80AA00DB0BDE8F08F234604229A
:1050700001A9484608F076FA042826D105EB051266
:1050800008EB021401994846616008F0F7FA0598A8
:1050900002F0E8FE114984F80AB02060884200D985
:1050A0002160211D2846FFF7E1FC2068002800E070
:1050B0000BE0D8D1A07A0328D5D184F80AA0D2E792
:1050C0006D1CEDB2042DFFF413AF484608F0D6FA7C
:1050D000C9E700007874002000010020803A090030
:1050E0002DE9FF5F04464A4900EB041001EB00156F
:1050F000E87A022806D347A340F2FA2251A157A02A
:10510000FEF7D2FEE97A5F48002650F8210040B34E
:1051100005F110000446FBF751F9123081B24FF44B
:105120002072362007F094FE5FEA000A65D00096F0
:1051300001960296288902F097FEADF80000012042
:105140008DF802004FF4807BADF804B00C22694664
:10515000504608F0EDFC0C26641E641C2746002215
:105160000BE000212046FFF781FCAE72002004B066
:10517000BDE8F09F521CD2B2641C20782E2801D0CA
:105180000028F7D1E01B1FFA80F9B01800F10108E0
:10519000B8F5803F35D23146504608F05CFB761CAE
:1051A000B3B24A463946504608F07EFD20781FFAD1
:1051B00088F60028D1D100223146504608F04BFB3A
:1051C000761CADF80CB0B3B2ADF80EB0042203A952
:1051D000504608F069FDEA7A2A49E87B01EB820231
:1051E0000B493523103951F82000514610F040FB8F
:1051F0000446504608F042FA01E04FF0FF342046E2
:10520000B5E7504608F03AFA6FF00500AFE7000046
:10521000787400202E2E2F4D6964646C657761725E
:1052200065732F54686972645F50617274792F4C92
:105230007749502F7372632F636F72652F646E739B
:105240002E630000646E7320736572766572206F42
:105250007574206F662061727261790041737365A5
:105260007274696F6E2022257322206661696C65F5
:1052700064206174206C696E6520256420696E204D
:1052800025730A0000010020022805D2044A02EB1F
:10529000800011B10968016070470249FAE7000017
:1052A00000010020A474010810B500242046FFF777
:1052B00029FC641CE4B2042CF8D310BD70B505467B
:1052C0000C46880706D009A34FF4B67213A11BA0A1
:1052D000FEF7EAFD09F094FCA96809682160A96855
:1052E0000C60BDE8704009F0B3BC00002E2E2F4DBD
:1052F0006964646C6577617265732F546869726460
:105300005F50617274792F4C7749502F7372632FFD
:10531000636F72652F6D656D702E63006D656D70C6
:105320005F667265653A206D656D2070726F70659D
:10533000726C7920616C69676E6564004173736596
:105340007274696F6E2022257322206661696C6514
:1053500064206174206C696E6520256420696E206C
:1053600025730A0070B5044609F04AFC0546A0689A
:105370000468002C0FD021680160A00706D008A3A4
:105380004FF48C7212A11BA0FEF78EFD284609F087
:105390005FFC204670BD284609F05AFC002070BD15
:1053A0002E2E2F4D6964646C6577617265732F547E
:1053B000686972645F50617274792F4C7749502F1D
:1053C0007372632F636F72652F6D656D702E63004E
:1053D0006D656D705F6D616C6C6F633A206D656DAE
:1053E000702070726F7065726C7920616C69676E85
:1053F00065640000417373657274696F6E202225C5
:105400007322206661696C6564206174206C696E2A
:105410006520256420696E2025730A002DE9F04778
:105420000F46040006D13FA34FF4DC724AA14EA000
:10543000FEF73AFD09F0E4FB002666602772217F43
:1054400041F0010121776578667009F001FC636A1B
:105450007BB10022042120469847636A4BB10022A9
:10546000114620469847636A1BB10022022120465C
:105470009847384603F05EFB804604F110008146F1
:1054800009F047FC18B14146484609F038FC04F1E0
:105490001400814609F03DFC18B14146484609F028
:1054A0002EFC012D0FD0042D0DD0032D0BD0206A22
:1054B000002834D0BDE8F0471AA340F2F71234A117
:1054C00029A0FEF7F1BC217FC1F3800001F0FB01B0
:1054D0002177002823D1206A30B912A34FF4F37248
:1054E00032A121A0FEF7E0FC206A042D08D007714C
:1054F000206A05680C35284609F048FC10B108E020
:105500000671F5E707A340F2EF122FA116A0FEF7F0
:10551000CBFC28462662BDE8F04709F034BCBDE864
:10552000F08700002E2E2F4D6964646C65776172E0
:1055300065732F54686972645F50617274792F4C7F
:105540007749502F7372632F6170692F6170695FA3
:105550006D73672E63000000636F6E6E20213D2027
:105560004E554C4C00000000417373657274696FB6
:105570006E2022257322206661696C656420617447
:10558000206C696E6520256420696E2025730A00F1
:10559000636F6E6E2D3E63757272656E745F6D73B0
:1055A00067203D3D204E554C4C000000636F6E6EF1
:1055B0002D3E63757272656E745F6D736720213D59
:1055C000204E554C4C000000696E61766C69642079
:1055D0006F705F636F6D706C657465645F73656D2C
:1055E0000000000070B5094D0646002404EB44009D
:1055F00005EBC000017D29B18068B04202D1204690
:1056000000F036F9641C0A2CF0DB70BD38B10020C4
:105610002DE9F74F84B04FF00A0B00240646DA4616
:105620005F46D94602940194CDF80040514904EBFD
:10563000440001EBC008039098F814500A2F1DD0C5
:10564000002D2AD0012D08D0022D06D24AA340F207
:10565000231257A166A0FEF727FC9EB13168D8F847
:10566000040081420ED1069820B1D8F8081006989F
:10567000814207D1204607B0BDE8F08F002DE1D16F
:1056800027460AE0012D16D0022D06D3B8F81200E5
:105690000099884201D3A2460090641C24B20A2CCF
:1056A000C4DB059881074FF0FF30E4D40A2F16D0F1
:1056B00018DA3C463EE02F49039851F830000028A4
:1056C000B8F8120005D002998842E6D3A1460290AC
:1056D000E3E701998842E0D3A3460190DDE705990D
:1056E000C907C8D05146BAF10A0F0EDA0C46214854
:1056F00001EB440150F8310080B11FA340F26D125C
:1057000045A13BA0FEF7D0FB08E05946BBF10A0FCC
:1057100003DB4946B9F10A0FADDA0C460A2C06DB69
:1057200015A340F27F1242A131A0FEF7BDFB204637
:1057300000F09EF80A2C06DB0FA340F283123CA176
:105740002BA0FEF7B1FB0B4804EB440100EBC105B5
:10575000287D30B108A34FF4C2723AA124A0FEF70D
:10576000A3FB0EB130686860002068820698A860CC
:1057700080E7000038B100202E2E2F4D6964646C44
:105780006577617265732F54686972645F506172E6
:1057900074792F4C7749502F7372632F636F726542
:1057A0002F697076342F6574686172702E63000003
:1057B0007374617465203D3D204554484152505FEB
:1057C00053544154455F50454E44494E47207C7CDC
:1057D000207374617465203E3D2045544841525009
:1057E0005F53544154455F535441424C45000000BF
:1057F000417373657274696F6E202225732220666F
:1058000061696C6564206174206C696E6520256433
:1058100020696E2025730A006172705F7461626C8A
:10582000655B695D2E71203D3D204E554C4C00005E
:1058300069203C204152505F5441424C455F5349DE
:105840005A4500006172705F7461626C655B695DEE
:105850002E7374617465203D3D204554484152507B
:105860005F53544154455F454D505459000000006A
:1058700070B5074C00EB4005002654F8350018B110
:1058800007F0FCFE44F8356004EBC500067570BDFA
:1058900038B100202DE9F04385B00D00074609D04E
:1058A0007C684FF480782088404539D120790628DB
:1058B00036D109E01CA340F28A2229A12CA0FEF7D0
:1058C000F3FA05B0BDE8F0836079042828D1608838
:1058D000082825D1D4F80E000490A169686820B189
:1058E000814202D10126334601E00026022304F161
:1058F0000802914604A9284600F0A2FBE088404532
:105900000ED16EB1022204ABCDE90232291DCDE9E0
:10591000001905F1260319464A46284600F090FA78
:10592000384607F0ABFECCE72E2E2F4D6964646C31
:105930006577617265732F54686972645F50617234
:1059400074792F4C7749502F7372632F636F726590
:105950002F697076342F6574686172702E63000051
:105960006E6574696620213D204E554C4C00000048
:10597000417373657274696F6E20222573222066ED
:1059800061696C6564206174206C696E65202564B2
:1059900020696E2025730A00FEB515460E460400E8
:1059A00006D143A340F21E324FA153A0FEF77CFA6A
:1059B00036B93FA340F21F3259A14FA0FEF774FA47
:1059C00035B93BA34FF4487258A14BA0FEF76CFACF
:1059D0002146286801F03EF808B1584B3FE028689E
:1059E000C0F303110E2925D0A168636800EA010203
:1059F0000B409A4208D080B2A0F57E41A93903D06D
:105A0000E068B0B304F10C054D4B4E481A7802EB38
:105A1000420100EBC1010F7D022F2ED38F68A742F8
:105A20002BD12F6849688F4227D13146204600F09C
:105A30008BF8FEBD01208DF8040000208DF80500D4
:105A40005E208DF80600687801AB00F07F008DF8CD
:105A50000700A8788DF80800E8788DF809004FF461
:105A60000060009004F126023146204600F0C8FB99
:105A7000FEBDFFE76FF00300FAE7002202EB4201F0
:105A800000EBC1010F7D022F08D38F68A74205D11B
:105A90002F6849688F4201D11A70C6E7521CD2B2F2
:105AA0000A2AEBD332462946204600F0D5F8DFE734
:105AB0002E2E2F4D6964646C6577617265732F5467
:105AC000686972645F50617274792F4C7749502F06
:105AD0007372632F636F72652F697076342F6574EC
